:020000040000FA
:100000006821002085140000210500002305000060
:10001000270500002B0500002F0500000000000050
:100020000000000000000000000000003305000098
:100030003505000000000000BB4F00002112000049
:100040009F1400009F1400009F1400009F140000E4
:100050009F1400009F1400009F1400009F140000D4
:100060009F1400009F1400009F1400009F140000C4
:100070009F1400009F1400009F1400009F140000B4
:100080009F1400009F1400009F1400009F140000A4
:100090009F1400009F1400009F1400009F14000094
:1000A0009F1400009F1400009F1400009F14000084
:1000B0009F1400009F140000590E00009F140000C0
:1000C0009F1400009F1400009F1400009F14000064
:1000D0009F140000F11300009F1400005510000051
:1000E0009F1400009F1400009F1400009F14000044
:1000F0009F1400009F1400009F1400009F14000034
:100100009F1400009F1400009F1400009F14000023
:100110009F1400009F1400009F1400009F14000013
:100120009F1400009F1400009F1400009F14000003
:1001300000F002F800F0B0F80AA090E8000C824449
:100140008344AAF10107DA4501D100F0A5F8AFF226
:10015000090EBAE80F0013F0010F18BFFB1A43F0A5
:100160000103184794720000B47200000A444FF073
:10017000000C10F8013B13F0070408BF10F8014B06
:100180001D1108BF10F8015B641E05D010F8016B4B
:10019000641E01F8016BF9D113F0080F1EBF10F8AF
:1001A000014BAD1C0C1B09D16D1E58BF01F801CBD2
:1001B000FAD505E014F8016B01F8016B6D1EF9D555
:1001C0009142D6D37047000000230024002500266A
:1001D000103A28BF78C1FBD8520728BF30C148BFAA
:1001E0000B6070476E2904F0F187702905F03381A8
:1001F000662906F00684652906F00384672906F05F
:1002000000846129AFF3008003681B0A28BF41F016
:100210008001692904F09E87642904F09B87752971
:1002200004F098876F2905F0C180782905F0FF80D8
:10023000E92905F05B80E42905F05880F52905F0EF
:100240005580EF2905F0BE80F82905F0FE8003688F
:10025000DB0928BF41F08001632905F08084732900
:1002600005F08584E32905F09084F32905F0958451
:10027000002070471FB505F0E1FC040000200021BC
:1002800006F0C8F9401C60600020002106F0ACF9BF
:10029000E0601FBD10B510BD05F0A3FC1146FFF7CF
:1002A000E9FF00F0FDF805F07BFD03B4FFF7F2FF76
:1002B00003BC01F03FF800008178802902D0812939
:1002C0001CD10DE0417951B18949096809B9012171
:1002D00000E00021864A11604179864A11700EE0E3
:1002E000417951B18249096809B9012100E0002131
:1002F0007F4A11604179804A117000E000BF00BF61
:10030000704710B500F064FE044605E02046FFF794
:10031000D3FF00F05DFE0446002CF7D110BD002590
:1003200036E0802075498870724800784871002452
:1003300006E00A2000F0D1FFFFF7E3FF601C84B263
:10034000642CF6DB81206E4988706B480078487118
:10035000002406E00A2000F0C0FFFFF7D2FF601C77
:1003600084B2642CF6DB6748008800F4004078B162
:1003700064480088C5B2002405E06349085D00F0C8
:1003800002FE601C84B2AC42F7DB00205D490880AD
:10039000C7E710B500F050FF4FF4A06001F092F8ED
:1003A0004FF4E13000F0D5FF4FF4E13000F086FE6D
:1003B00000F0B2F910BD01E0FFF7B1FFFCE738E053
:1003C00000220121084600F0D5FC0122114612202E
:1003D00000F0D0FC02220121232000F0CBFC454894
:1003E000007806F0AFF90446224601212C2000F0E7
:1003F0007FFC0C2000F071FF03220421012000F09B
:10040000B9FC04221146122000F0B4FC052204219C
:10041000232000F0AFFC3848007806F093F904463A
:10042000224604212C2000F063FC4FF4966000F07B
:1004300054FFC5E70EE000202D4908604FF47A70A4
:1004400000F04BFF01203149C1F880014FF47A7070
:1004500000F043FFEFE770B50446002500BF02F04F
:1004600097FF04F083FD05460723294A0021AFF2D8
:100470003B0004F003F90623264A0021AFF2C10035
:1004800004F0FCF80523244A0021AFF2D50004F063
:10049000F5F80A2004F072FB284604F06BFD70BDED
:1004A00010B500F0B8F800F0C7FE4FF4A06001F0FE
:1004B00009F800F0E1F94FF4E13000F04AFF4FF4A1
:1004C000E13000F0FBFD00F027F900F0C4FA002055
:1004D0000749086002F01FFE0A23104A0021AFF20C
:1004E000890004F0CBF802F03BFF002010BD0000B3
:1004F0008081214200000020010000202600002011
:100500002C0000200E030020F80A00200080214269
:100510007406002074080020740A0020740500206E
:10052000704700BFFEE700BFFEE700BFFEE700BF69
:10053000FEE77047704700000CB500200190009066
:100540006C48006840F480306A49086000BF694820
:10055000006800F4003000900198401C0190009861
:1005600018B90198B0F5A06FF1D16248006800F4A5
:10057000003010B10120009001E0002000900098B0
:10058000012843D15C48006840F010005A490860D7
:100590000846006820F0030008600846006840F044
:1005A0000200086053484068524948600846406865
:1005B00048600846406840F48060486008464068EB
:1005C00020F47C1048600846406840F4E810486019
:1005D0000846006840F08070086000BF4548006829
:1005E00000F000700028F9D04248406820F0030075
:1005F000404948600846406840F00200486000BF3B
:100600003C48406800F00C000828F9D10CBD10B53A
:10061000FFF792FF10BD10B53648006840F00100AA
:100620003449086008464068344908403149486008
:1006300008460068324908402E49086008460068AC
:1006400020F4802008600846406820F4FE004860DE
:100650004FF41F008860FFF7DAFF4FF00060294970
:10066000086010BD10B5002100200022214B5B68FE
:1006700003F00C0121B1042906D0082928D107E094
:10068000214B224C236027E01F4B204C236023E0AA
:10069000184B5B6803F47010164B5B6803F48032F0
:1006A000022303EB904022B9194B4343174C2360BC
:1006B0000DE0104B5B6803F4003323B1144B43434C
:1006C000124C236003E0104B4343104C236003E0C3
:1006D0000D4B0E4C236000BF00BF064B5B68C3F39D
:1006E00003130C4CE15C094B1B68CB40074C2360A7
:1006F00010BD000000100240002002400000FFF882
:10070000FFFFF6FE08ED00E000127A003400002042
:1007100000093D003800002008B50121482001F003
:100720005FFC0120ADF8000010208DF803000320CD
:100730008DF802006946094800F092FF0121074840
:1007400001F03BF82020ADF800006946044800F0B5
:1007500087FF2021024801F030F808BD000C01405D
:100760000018014010B54021F94801F026F8802119
:10077000F74801F024F88021F54801F01EF810BD7B
:1007800010B54021F24801F018F84021F04801F07E
:1007900016F810BD2DE9F04105462C464021EC48E5
:1007A00001F00DF8002619E0274607F08007802F9A
:1007B00004D18021E64801F000F803E08021E448FC
:1007C00000F0FDFF6006040E4021E14800F0F5FF57
:1007D0004021DF4800F0F3FF701CC6B2082EE3DBB7
:1007E000BDE8F08110B54021D94800F0E6FF802136
:1007F000D74800F0E2FF8021D54800F0E0FF40211B
:10080000D34800F0DCFF10BD10B50446FFF7EAFF47
:100810007820FFF7BFFFFFF7B3FF0020FFF7BAFF15
:10082000FFF7AEFF2046FFF7B5FFFFF7A9FFFFF781
:1008300099FF10BD10B50446FFF7D4FF7820FFF7ED
:10084000A9FFFFF79DFF4020FFF7A4FFFFF798FFE8
:100850002046FFF79FFFFFF793FFFFF783FF10BDD1
:1008600070B504460D461DB1E0B2FFF7E3FF02E0AC
:10087000E0B2FFF7C9FF70BD08B501214FF49470D5
:1008800001F0AEFBC020ADF8000010208DF8030091
:1008900003208DF802006946AD4800F0E1FEC0215A
:1008A000AB4800F08AFFC82000F017FD0021AE2001
:1008B000FFF7D6FF00210846FFF7D2FF00211020E6
:1008C000FFF7CEFF00214020FFF7CAFF0021B02034
:1008D000FFF7C6FF00218120FFF7C2FF0021FF20A4
:1008E000FFF7BEFF0021A120FFF7BAFF0021A620DD
:1008F000FFF7B6FF0021A820FFF7B2FF00213F203D
:10090000FFF7AEFF0021C820FFF7AAFF0021D32088
:10091000FFF7A6FF00210846FFF7A2FF0021D52020
:10092000FFF79EFF00218020FFF79AFF0021D820CB
:10093000FFF796FF00210520FFF792FF0021D92045
:10094000FFF78EFF0021F120FFF78AFF0021DA2058
:10095000FFF786FF00211220FFF782FF0021DB2036
:10096000FFF77EFF00213020FFF77AFF00218D2066
:10097000FFF776FF00211420FFF772FF0021AF2060
:10098000FFF76EFF08BD70B50646002418E004F1BD
:10099000B0000021FFF764FF00210846FFF760FF69
:1009A00000211020FFF75CFF002505E00121304603
:1009B000FFF756FF681CC5B2802DF7DB601CC4B280
:1009C000082CE4DB70BD06E041F6650100E0491E3D
:1009D0000029FCD1401E0028F6D17047014605E0F1
:1009E000002001E0421CD0B27B28FBDB0A1EA1F1F3
:1009F0000101F5D1704770B504460D4605F1B00010
:100A00000021FFF72DFF102141EA14100021FFF70C
:100A100027FF04F00F000021FFF722FF70BD10B583
:100A200000218D20FFF71CFF00211420FFF718FF85
:100A30000021AF20FFF714FF10BD10B500218D205D
:100A4000FFF70EFF00211020FFF70AFF0021AE2064
:100A5000FFF706FF10BD70B5002418E004F1B000E8
:100A60000021FFF7FDFE00210846FFF7F9FE0021F7
:100A70001020FFF7F5FE002505E001210020FFF71B
:100A8000EFFE681CC5B2802DF7DB601CC4B2082CD9
:100A9000E4DB70BD70B5002418E004F1B000002163
:100AA000FFF7DEFE00210846FFF7DAFE00211020E6
:100AB000FFF7D6FE002505E001210846FFF7D0FE2E
:100AC000681CC5B2802DF7DB601CC4B2082CE4DBC7
:100AD00070BD2DE9F04707460E4690469946002521
:100AE0000024A8F12000C5B27F2F02DD0027B01C32
:100AF000C6B2B9F1100F24D131463846FFF77BFF5B
:100B0000002408E004EB0511124A505C0121FFF7B4
:100B1000A7FE601CC4B2082CF4DB701CC1B23846BE
:100B2000FFF769FF002409E004EB05110831094AC9
:100B3000505C0121FFF794FE601CC4B2082CF3DB6B
:100B400017E031463846FFF756FF00240FE000005B
:100B5000000C01402E6C000005EB4501BB4A02EB86
:100B60004101085D0121FFF77BFE601CC4B2062C29
:100B7000F2DBBDE8F0872DE9F04107460E4600257F
:100B8000002400BF12E021461720FFF734FF0025A4
:100B900008E0C4EBC4012944705C0121FFF760FE4A
:100BA000681CC5B2072DF4DB601CC4B2082CEADB5C
:100BB000BDE8F08110B50246012000E050430B1E55
:100BC000A1F10104E1B2F9D110BD2DE9FF5F0746A3
:100BD00091461E460E9D4FF0000A002435E0301B62
:100BE000401EC1B20A20FFF7E5FFB9FBF0F00A2171
:100BF000B0FBF1F201FB1208BAF1000F14D1701E24
:100C0000A04211DDB8F1000F0CD1AB4605EBDB7152
:100C1000491001FB0471C8B22B4620220199FFF74D
:100C200058FF10E04FF0010AAB4605EBDB714910AD
:100C300001FB0471C8B208F13001CAB22B46019918
:100C4000FFF747FF00BF601CC4B2B442C7DBBDE87A
:100C5000FF9F2DE9FC5F0646894692461F46DDF858
:100C600030800E9C43465246494630460094FFF77A
:100C7000ACFFA34604EBDB71491001FB0861491C82
:100C8000C8B223462E224946FFF723FF204604EB35
:100C9000D071491001FB0861C91CCEB200250CE0DF
:100CA0000A2097FBF0F100FB117001A948550A20BA
:100CB00097FBF0F0C7B2681CC5B2022DF0DB00252F
:100CC00012E0A34604EBDB71491001FB0561C8B2D9
:100CD000C5F1010101AB595C3031CAB22346494626
:100CE000FFF7F7FE681CC5B2022DEADBBDE8FC9FEA
:100CF0002DE9FE4F05460E461446204605F002FD3E
:100D00008246504605F01EFD8346214605F0FAFD59
:100D100081464F4905F02AFD804605F0F3FCC7B235
:100D20001020032100913B465246CDE90110314687
:100D30002846FFF78EFFBDE8FE8F2DE9F0410446FF
:100D40000F461546984600260FE0AA5D43463946F1
:100D50002046FFF7BEFE04F10800C4B2782C02DD85
:100D60000024B81CC7B2701CC6B2A85D0028ECD124
:100D7000BDE8F0812DE9F04180460E46154600277A
:100D800031464046FFF737FE00240AE0314A02EBC5
:100D90008511085D0121FFF763FD781CC7B2601C57
:100DA000C4B2102CF2DB701CC1B24046FFF723FE28
:100DB00000240CE06900491C264A02EB4111085D41
:100DC0000121FFF74DFD781CC7B2601CC4B2102C86
:100DD000F0DBBDE8F0812DE9F05F06460F46904656
:100DE0001C46DDF828A04FF0000BE11704EB517111
:100DF000C910A4EBC10131B92046E11704EB5171D0
:100E0000C1F3C70506E02046E11704EB5171C91094
:100E1000491CCDB23D4615E029463046FFF7EBFDB3
:100E2000B1460BE059460BF1010B1AF80100012104
:100E3000FFF716FD09F1010000F0FF09C145F1DBE4
:100E4000681CC5B2A542E7DBBDE8F09F066A00005A
:100E50000000C8424800002010B501211F4802F0E0
:100E60001CF868B11E48008840F400401C49088006
:100E700001211A4802F022F80021184801F044FD2F
:100E800010BD7FB505460C460121042001F0B5F8E0
:100E9000ADF80450ADF800400020ADF80600ADF804
:100EA000020069460D4801F0D3F9012211460B48B2
:100EB00001F045FD0121094801F026FD1E208DF8B5
:100EC0000C0000208DF80D0002208DF80E0001208E
:100ED0008DF80F0003A800F0FAFA7FBD000800406B
:100EE0000E0300205549564A127801EB8211097809
:100EF000544A127891420EDD5049514A127801EB62
:100F00008211491C4F4A127888544E490978491C6D
:100F10004C4A117002E0FF214A4A1170704749495A
:100F20000978FF2908D14549454A127801EB821119
:100F300008700021434A11707047404840490978C1
:100F400000EB811000783F490978884217D13E486C
:100F5000007880B93A480078401C39490870084642
:100F6000007800F001000870012038490870FF2067
:100F70003449087006E0A0203249087002E0FF20E2
:100F800030490870704710B50446FE2C04D0FF2C81
:100F900006D1FFF7D2FF19E001202D49087015E0B6
:100FA0002B48007801280DD10020294908703F2CDA
:100FB00003DC2046FFF7B3FF07E0A11CC8B2FFF730
:100FC00091FF02E02046FFF78DFF00BF00BF10BD7C
:100FD00000211D4A11701D49097801290ED10021F7
:100FE0001A4A11700121184A117015490978491CD3
:100FF00001F00101114A02EB81101DE0114909784D
:10100000A02918D10E490978491C0D4A11701146C2
:10101000097801F001011170FF210A4A11700121C4
:10102000094A117006490978491C01F00101034A77
:1010300002EB811000E0002070470000780A0020D9
:10104000090300200A0300200C0300200B030020EA
:101050000803002010B540F22551644800F00EFE50
:1010600058B3624800F08AFDC4B2212C00D100BF01
:101070005F48008800F40040E0B95D4800886428BB
:1010800012DA00215B4801F0D3FE5948008818B9F4
:101090000121584801F038FC55490888411C544A40
:1010A000118055490C5405E05148008840F4004037
:1010B0004F4908802046FFF766FF10BD10B586B087
:1010C00004460121082000F08BFF0121880400F074
:1010D00094FF464800F012FC4FF48060ADF8100019
:1010E00003208DF8120018208DF8130004A943483E
:1010F00000F0B6FA4FF40060ADF8100004208DF84F
:10110000130004A93D4800F0ABFA00940020ADF8AC
:101110000400ADF80600ADF80800ADF80C000C2096
:10112000ADF80A006946314800F02BFC01212F4838
:1011300000F0B3FC012240F225512C4800F0B9FC2C
:1011400027208DF8140002208DF8150003208DF85B
:10115000160001208DF8170005A800F0B8F941F637
:101160001F416320FFF78DFE0020214908800021E8
:10117000204801F0C9FB06B010BD0FB438B505A872
:1011800000901F48009A049903F04CFF0020009043
:101190001B4803F059FF85B200240DE000BF402139
:1011A000124800F055FD0028F9D01548015D0F48A0
:1011B00000F0E0FC601C84B2AC42EFDB38BC5DF8B0
:1011C00014FB01460948008800F0400060B9FE2089
:1011D000064A121D108000BF0448008800F040003D
:1011E0000028F9D0002070470120FCE700480040AB
:1011F0000E03002000080040F80A0020000C014007
:101200005C0B002010B501F0EFFF10BD10B502F02F
:1012100030F810BD10B50446204603F077FD10BD30
:1012200010B53E480078012805D101F08AFF02F090
:10123000CEF801F0A1FF10BD10B56FF0040000F072
:1012400090F9374800683749B0FBF1F0364908702B
:10125000334800683349B0FBF1F441F2883044432D
:101260000520324908804FF0E020006940F002007C
:101270004FF0E021086108464461006940F0010038
:10128000086110BD2DE9F047074600264FF0E02029
:10129000D0F814902448007807FB00F800BFFFF74F
:1012A000B1FF4FF0E020856911E04FF0E020846944
:1012B000AC420CD0AC4202D2281B064403E0A9EB9E
:1012C0000400284406442546464500D300E0ECE7E8
:1012D00000BFFFF79BFFBDE8F08770B504460F48DD
:1012E0000078A0B11248007888B91048008884427C
:1012F00006DB0E48008894FBF0F52846FFF78AFFCE
:101300000A48008894FBF0F100FB114084B24FF4CE
:101310007A7104FB01F0FFF7B5FF70BD56030020A2
:101320003400002000127A00100300201203002075
:1013300049030020014600BF704700BF4D4A128894
:1013400002F04002002AF9D0C2B24A4B1B1D1A809B
:10135000704710B586B00446012144F2040000F045
:101360003FFE444800F0CAFA4FF40070ADF8140094
:1013700003208DF8160018208DF8170005A93E48A7
:1013800000F06EF94FF48060ADF8140004208DF881
:10139000170005A9384800F063F925208DF80000F2
:1013A00003208DF801008DF8020001208DF8030064
:1013B000684600F08CF801940020ADF80800ADF804
:1013C0000A00ADF80C00ADF810000C20ADF80E00CE
:1013D00001A9284800F0D5FA012240F225512548FC
:1013E00000F067FB0121234800F057FB06B010BD59
:1013F00010B501F0A6FE40F225511E4800F03EFC5B
:1014000010B31C4800F0BAFBC4B21C48008800F4BA
:101410000040C8B91948008800F4804060B10A2C27
:1014200003D000201549088020E01448008840F4CB
:1014300000401249088019E00D2C06D10F480088A1
:1014400040F480400D49088010E00C480088C0F34B
:101450000D000B490C5409480088401C07490880BE
:1014600008460088C72801DD0020088001F084FEBE
:1014700010BD0000003801400008014018030020A2
:10148000C00B00200948804709480047FEE7FEE7F7
:10149000FEE7FEE7FEE7FEE7FEE7FEE7FEE7FEE724
:1014A00004480549054A064B70470000170600002E
:1014B0003101000068170020682100206819002011
:1014C0006819002031490143314A1160704770B5F5
:1014D000002100230F22C47804B32D4C246804F4A7
:1014E000E064C4F5E064210AC1F10403CA40447811
:1014F00004FA03F18478144021430901254C06784D
:10150000A155047804F01F050124AC4005786D1145
:10151000AD0005F1E025C5F8004109E0047804F0CC
:101520001F050124AC401C4D0678761145F8264075
:1015300070BD1A4A0A400243154B1B1F1A607047C0
:1015400039B1134A121D12680243114B1B1D1A6058
:1015500006E00F4A121D126882430D4B1B1D1A60D4
:101560007047042808D14FF0E021096941F00401D7
:101570004FF0E022116107E04FF0E021096921F00E
:1015800004014FF0E0221161704700000000FA05ED
:101590000CED00E000E400E080E100E080FFFF1FD0
:1015A00010B50446CC48844208D10121042000F043
:1015B00031FD0021042000F02DFD46E0C7488442A3
:1015C00008D10121082000F025FD0021082000F0AD
:1015D00021FD3AE0C248844208D10121102000F0E8
:1015E00019FD0021102000F015FD2EE0BD488442B9
:1015F00008D10121202000F00DFD0021202000F065
:1016000009FD22E0B848844208D10121402000F0C1
:1016100001FD0021402000F0FDFC16E0B3488442AB
:1016200008D10121802000F0F5FC0021802000F08D
:10163000F1FC0AE0AE48844207D10121801500F098
:10164000E9FC0021A01500F0E5FC10BD10B501215A
:10165000084600F0DFFC0021012000F0DBFC10BD9B
:101660002DE9F04102460025002600200023002439
:10167000002791F803C00CF00F0591F803C00CF09F
:10168000100CBCF1000F03D091F802C04CEA050524
:1016900091F800C0BCF1000F31D0146800202BE09D
:1016A0004FF0010C0CFA00F3B1F800C00CEA03068D
:1016B0009E4220D183004FF00F0C0CFA03F7BC437D
:1016C00005FA03FC4CEA040491F803C0BCF1280FAE
:1016D00006D14FF0010C0CFA00FCC2F814C00AE06D
:1016E00091F803C0BCF1480F05D14FF0010C0CFA82
:1016F00000FCC2F810C0401C0828D1D31460B1F817
:1017000000C0BCF1FF0F34DD546800202EE000F172
:10171000080C4FF0010808FA0CF3B1F800C00CEA0D
:1017200003069E4221D183004FF00F0C0CFA03F701
:10173000BC4305FA03FC4CEA040491F803C0BCF175
:10174000280F05D100F1080C08FA0CF8C2F8148033
:1017500091F803C0BCF1480F07D100F1080C4FF01D
:10176000010808FA0CF8C2F81080401C0828CED3F3
:101770005460BDE8F0814FF6FF7101800221817055
:101780000421C17070470246002093680B400BB1E2
:10179000012000E0002070470146886880B2704751
:1017A00002460020D3680B400BB1012000E000206E
:1017B00070470146C86880B2704701617047416157
:1017C00070470AB1016100E041617047C160704734
:1017D0004FF480320A438261816182618269826949
:1017E000704702460020434B18684FF6807318403C
:1017F00040EA021008433F4B186070473E49C861F9
:101800007047F0B50A46002300240021002500F0AF
:101810000046B6F1004F02D1364EF16901E0354E77
:101820007168C0F3034583B200F44016B6F5401F5B
:1018300008D121F070612F4E766826F070662D4F2A
:101840007E6012E000F48016B6F5801F06D10326F4
:1018500006FA05F4A14341F0706106E0460D360139
:1018600003FA06F6B14341F0706122B1460D36012C
:1018700003FA06F6314300F00046B6F1004F02D1FC
:101880001C4EF16101E01B4E7160F0BD30B50022CD
:101890008B071C0F0F2303FA04F2164B08338C102E
:1018A00053F824309343134C08348D1044F82530FA
:1018B00023468C1053F824308C07240F00FA04F4CC
:1018C00023430C4C08348D1044F8253030BD0A49B0
:1018D000DC3108607047000000080140000C014046
:1018E000001001400014014000180140001C01409C
:1018F00000200140000001400000204210B50446D5
:10190000FB48844209D10121880300F083FB0021B8
:101910004FF4804000F07EFB32E0F648844209D16B
:101920000121480400F083FB00214FF4003000F057
:101930007EFB25E0F048844209D10121880400F0B3
:1019400076FB00214FF4802000F071FB18E0EB489B
:10195000844209D10121C80400F069FB00214FF441
:10196000002000F064FB0BE0E548844208D101212F
:10197000080500F05CFB00214FF4801000F057FBDD
:1019800010BD2DE9F04786B005460E460024A2465C
:1019900000BFA1460027B08900B100BF2F462C8AA6
:1019A0004CF6FF700440F08804432C82AC894EF65C
:1019B000F3100440B0883189084371890843044317
:1019C000AC81AC8A4FF6FF400440B0890443AC823E
:1019D00001A800F098FAC648874202D1DDF810A0AD
:1019E00001E0DDF80CA0A88900F4004040B10AEB4A
:1019F000CA0000EB0A1031684900B0FBF1F807E0BB
:101A00000AEBCA0000EB0A1031688900B0FBF1F85C
:101A10006420B8FBF0F004012009642101FB108967
:101A2000A88900F4004040B1322000EBC900B0FBAF
:101A3000F1F000F00700044308E0322000EB091049
:101A40006421B0FBF1F000F00F0004432C8106B0DC
:101A5000BDE8F0874FF41651016000218180C180FC
:101A600001810C21418100218181704710B502461E
:101A70000020108A4FF2FF0318400B884C88234344
:101A80008C882343CC8823431843108210BD002147
:101A9000018041808180C180704721B1828942F4F8
:101AA0000052828104E082894DF6FF731A408281E0
:101AB0007047F0B50346002400260025002040F6BC
:101AC0006A17B94200D100BF1846C1F3421401F0B1
:101AD0001F06012707FA06F5012C01D10C3004E09E
:101AE000022C01D1103000E014301AB107682F43E6
:101AF000076002E00768AF430760F0BD1AB1838A50
:101B00000B43838202E0838A8B4383827047028A7D
:101B10004FF6F0731A400282028A0A43028270472B
:101B200082894FF2FF731A40828182890A4382813F
:101B3000704721B1828942F00202828104E08289E9
:101B40004FF6FD731A4082817047028A4FF6DF73A9
:101B50001A400282028A0A430282704721B1028A35
:101B600042F48042028204E0028A4BF6FF731A407C
:101B700002827047C1F3080282807047014688885C
:101B8000C0F308007047818941F0010181817047ED
:101B9000028BD2B20283028B42EA01220283704797
:101BA000028B02F47F420283028B0A430283704756
:101BB00021B1828A42F02002828204E0828A4FF6BA
:101BC000DF731A408282704721B1828A42F010028C
:101BD000828204E0828A4FF6EF731A408282704755
:101BE00021B1828A42F00802828204E0828A4FF6A2
:101BF000F7731A408282704721B1828942F4004211
:101C0000828103E08289C2F30E028281704721B192
:101C1000828A42F40062828204E0828A4FF2FF7379
:101C20001A4082827047828A4FF6FB731A40828282
:101C3000828A0A438282704721B1828A42F002027C
:101C4000828204E0828A4FF6FD731A4082827047D6
:101C500002460020B1F5007F00D100BF13880B4081
:101C60000BB1012000E00020704701F40072B2F5D2
:101C7000007F00D100BFCA430280704770B50246A2
:101C8000002400230025002040F66A16B14200D14E
:101C900000BFC1F3421501F01F03012606FA03F34A
:101CA000012D02D19689334006E0022D02D1168A19
:101CB000334001E0968A33400C12012606FA04F400
:101CC0001688344013B10CB1012000E0002070BD33
:101CD00010B50022002340F66A14A14200D100BFD3
:101CE0000A1201249440A3B2DC43048010BD00001A
:101CF000003801400044004000480040004C0040D3
:101D000000500040DF48006840F00100DD490860F5
:101D100008464068DC490840DA49486008460068DF
:101D2000DA490840D74908600846006820F4802056
:101D300008600846406820F4FE0048604FF41F0029
:101D400088607047CF49096821F48031CD4A11601D
:101D50001146096821F480211160B0F5803F03D05D
:101D6000B0F5802F0ED106E0C649096841F48031F4
:101D7000C44A116007E0C349096841F4A021C14A7F
:101D8000116000E000BF00BF704710B5014600229F
:101D9000002300204A11012A02D1BA4C236806E030
:101DA000022A02D1B74C236A01E0B64C636A01F003
:101DB0001F02012494401C400CB1012000E00020CF
:101DC00010BD38B5002000900024002500BF312050
:101DD000FFF7DBFF05460098401C00900098B0F527
:101DE000A06F01D0002DF2D03120FFF7CEFF08B157
:101DF000012400E00024204638BD01460020A14A0D
:101E0000106820F0F80040EAC10010607047A04957
:101E100008607047024600209A4B586820F47C10F6
:101E200042EA01031843974B586070479849086687
:101E3000704701460020934A506820F00300084391
:101E4000506070478F48406800F00C0070470146B2
:101E500000208C4A506820F0F00008435060704722
:101E600001460020874A506820F4E0600843506033
:101E7000704701460020834A506820F4605040EAD1
:101E8000C1005060704729B17E4A527A02437D4BAF
:101E90005A7204E07B4A527A82437A4B5A727047F4
:101EA0007B49D8310860704701460020754A506868
:101EB00020F440400843506070470021714A2032AE
:101EC0001170704A82F82010012802D004280AD12B
:101ED00004E001216B4A2032117005E00521694AB6
:101EE0002032117000E000BF00BF704769490860F0
:101EF00070476449096A0143624A11627047654943
:101F000044390860704730B50021002200240023C6
:101F10005C4D6D6805F00C0121B1042905D008293C
:101F200023D105E05C4D056022E05B4D05601FE0BC
:101F3000544D6D6805F47012524D6D6805F480348F
:101F4000022505EB92421CB9544D554305600BE048
:101F50004C4D6D6805F400351DB1504D554305607D
:101F600002E04D4D5543056002E04B4D056000BF5A
:101F700000BF444D6D6805F0F0010909484D6B5CE8
:101F80000568DD4045603F4D6D6805F4E061090A74
:101F9000434D6B5C4568DD4085603A4D6D6805F4E6
:101FA0006051C90A3E4D6B5C4568DD40C560354DEA
:101FB0006D6805F44041890B3A4D6B5CC568B5FB13
:101FC000F3F5056130BD29B12E4A526902432D4B0C
:101FD0005A6104E02B4A526982432A4B5A61704786
:101FE00029B1284A92690243264B9A6104E0254AA6
:101FF00092698243234B9A61704729B1214AD26981
:102000000243204BDA6104E01E4AD26982431D4B31
:10201000DA61704729B11B4AD2680243194BDA6072
:1020200004E0184AD2688243164BDA60704729B13F
:10203000144A12690243134B1A6104E0114A1269EF
:102040008243104B1A61704712494039086070474B
:102050000F49C86470470B49C87170470948406A06
:1020600040F0807007494862704701460020054AE9
:1020700092680A400AB1012000E00020704701493F
:1020800088727047001002400000FFF8FFFFF6FE64
:10209000000042428004424200127A0000093D00E2
:1020A0001A0300202A03002010B50446FE4884428B
:1020B00008D10121C014FFF7ADFF0021E014FFF7A4
:1020C000A9FFC4E0B4F1804F08D101210846FFF711
:1020D000AEFF00210120FFF7AAFFB8E0F3488442D9
:1020E00008D101210220FFF7A2FF00210220FFF703
:1020F0009EFFACE0EE48844208D101210420FFF7A6
:1021000096FF00210420FFF792FFA0E0E9488442F7
:1021100008D101210820FFF78AFF00210820FFF7DE
:1021200086FF94E0E448844208D101211020FFF7A3
:102130007EFF00211020FFF77AFF88E0DF4884420D
:1021400008D101212020FFF772FF00212020FFF796
:102150006EFF7CE0DA48844208D101214014FFF789
:1021600059FF00216014FFF755FF70E0D548844205
:1021700009D10121C804FFF74DFF00214FF40020D1
:10218000FFF748FF63E0D048844209D101210805E8
:10219000FFF740FF00214FF48010FFF73BFF56E0B0
:1021A000CA48844209D101214805FFF733FF0021C5
:1021B0004FF40010FFF72EFF49E0C548844208D1D4
:1021C00001214020FFF733FF00214020FFF72FFFC0
:1021D0003DE0C048844208D101218020FFF727FF5D
:1021E00000218020FFF723FF31E0BB48844208D163
:1021F00001218015FFF71BFF0021A015FFF717FF36
:1022000025E0B648844209D101210804FFF702FF06
:1022100000214FF48030FFF7FDFE18E0B048844203
:1022200009D101214804FFF7F5FE00214FF40030E9
:10223000FFF7F0FE0BE0AB48844208D1012188048F
:10224000FFF7E8FE00214FF48020FFF7E3FE10BD0A
:1022500000220288944B98420ED0994B98420BD0A2
:10226000B0F1804F08D0914B984205D0904B9842E6
:1022700002D0904B984204D14FF68F731A404B888E
:102280001A438D4B984207D08C4B984204D04FF69E
:10229000FF431A40CB881A4302808B8883850B88C2
:1022A0000385814B98420BD0854B984208D08B4BCD
:1022B000984205D08A4B984202D08A4B984201D16D
:1022C0000B7A038601238382704770B500240022B5
:1022D0000023058C4FF6FE7635400584028C8388FA
:1022E000048B4FF68F752C40B51E2C400D882C4367
:1022F000751E2A400D892A434D882A436A4DA842FB
:102300000BD06F4DA84208D0744DA84205D0744D33
:10231000A84202D0734DA84213D14FF6F7752A4058
:102320004D892A434FF6FB752A408D882A434FF684
:10233000FF652B404FF6FF552B408D892B43CD89F0
:102340002B4383800483CD888586028470BD70B55D
:10235000002400220023058C4FF6EF7635400584DB
:10236000028C8388048B48F6FF752C404FF6FF459E
:102370002C400D884FF6FF7606EA05252C434FF6D4
:10238000DF752A400D8906EA05152A434D8806EABD
:1023900005152A43444DA84202D0494DA8421DD1FB
:1023A0004FF67F752A404D894FF6FF7606EA0515F0
:1023B0002A434FF6BF752A408D8806EA05152A4341
:1023C0004FF6FF352B404FF2FF752B408D8906EA03
:1023D00085052B43CD8906EA85052B43838004833D
:1023E000CD880587028470BD70B5002400220023CB
:1023F000058C4FF6FF6635400584028C8388848BFC
:102400004FF68F752C404FF6FC752C400D882C43F1
:102410004FF6FF552A400D894FF6FF7606EA05254F
:102420002A434D8806EA05252A431F4DA84202D0BB
:10243000234DA8421DD14FF2FF752A404D894FF61A
:10244000FF7606EA05252A434FF6FF352A408D8898
:1024500006EA05252A434EF6FF752B404DF6FF751B
:102460002B408D8906EA05152B43CD8906EA051513
:102470002B4383808483CD888587028470BD70B5AB
:10248000002200230024058C4EF6FF76354005849B
:10249000038C8488828B48F6FF752A404FF6FF45EF
:1024A0002A400D8820E00000002C0140000400407C
:1024B00000080040000C00400010004000140040E4
:1024C00000340140004C01400050014000540140E4
:1024D00000180040001C0040002000400040014067
:1024E00000440140004801404FF6FF7606EA05250A
:1024F0002A434DF6FF752B400D8906EA05352B431F
:102500004D8806EA05352B43FA4DA84202D0FA4D14
:10251000A84208D14BF6FF752C408D894FF6FF7607
:1025200006EA85152C4384808283CD88A0F840502C
:10253000038470BD828B4FF2FF331A408283828BFB
:102540004FF6FF7303EA01231A4382837047F0B505
:102550000C461546002200210026078C4EF6FF7C13
:1025600007EA0C070784828B018C4FF6FF7707EA96
:10257000043640F6FF473A404FF6FF7707EA052753
:102580003A434FF6FF7707EA03373A43D94FB84249
:102590000ED0D94FB8420BD0B0F1804F08D0D74FF2
:1025A000B84205D0D64FB84202D0D64FB84206D175
:1025B0004DF6FF77394046F48057394305E047F63A
:1025C000FF57394044F48057394382830184F0BD7A
:1025D000828B4FF6F3731A408283828B0A43828385
:1025E0007047F0B50C461546002200210026078CE6
:1025F0004FF6FF6C07EA0C070784828B018C4FF6BD
:10260000FF7707EA04264FF60C773A404FF6FF773C
:1026100007EA03172F433A43B64FB8420ED0B64FDE
:10262000B8420BD0B0F1804F08D0B44FB84205D0BB
:10263000B34FB84202D0B34FB84206D14FF6FF575E
:10264000394046F48077394305E04FF2FF5739406F
:1026500044F48077394382830184F0BD028B4FF2CA
:10266000FF331A400283028B4FF6FF7303EA012304
:102670001A4302837047F0B50C461546002200212C
:102680000026078C4FF6EF7C07EA0C070784028BC5
:10269000018C4FF6FF7707EA041640F6FF473A40F1
:1026A0004FF6FF7707EA03373A434FF6FF7707EA1B
:1026B00005273A438F4FB8420ED08F4FB8420BD008
:1026C000B0F1804F08D08D4FB84205D08C4FB84242
:1026D00002D08C4FB84206D14FF6DF77394046F032
:1026E0001007394305E04FF65F77394044F0100793
:1026F000394302830184F0BD028B4FF6F3731A4015
:102700000283028B0A4302837047F0B50C461546DC
:1027100000220021068C4FF6FE773E400684028B95
:10272000018C4FF60C7632407E1C06EA03162E43CF
:102730003243704EB0420ED06F4EB0420BD0B0F16B
:10274000804F08D06D4EB04205D06D4EB04202D0E1
:102750006C4EB04206D14FF6FD76314044F0010692
:10276000314305E04FF6F576314044F00106314340
:1027700002830184F0BD70B505460C465D48854274
:102780000ED05D4885420BD0B5F1804F08D05B4834
:10279000854205D05A48854202D05A48854200D128
:1027A00000E000BF208850B92389A28861882846AC
:1027B000FFF7ABFFE1882846FFF79EFF25E0208862
:1027C00004280AD12389A28861882846FFF753FF8D
:1027D000E1882846FFF742FF17E0208808280AD141
:1027E0002389A28861882846FFF7FBFEE1882846F6
:1027F000FFF7EEFE09E02389A28861882846FFF7EB
:10280000A6FEE1882846FFF795FE70BD2DE9F04150
:1028100005460C4600260127608808B9022600E01C
:102820000026A088012801D1022700E00127208886
:10283000A0B92389A28861882846FFF766FFE1884E
:102840002846FFF759FF23893A4631462846FFF7C5
:1028500012FFE1882846FFF701FF13E02389A288D1
:1028600061882846FFF707FFE1882846FFF7F6FE54
:1028700023893A4631462846FFF747FFE188284634
:10288000FFF73AFFBDE8F0810A884B881A438B882E
:102890001A43CB881A430B891A434B891A438B89F5
:1028A0001A43A0F8442070474FF6FF718180002141
:1028B0000180C18041800172704700210180418008
:1028C0008180C180018141818181C1817047002166
:1028D00001804180012181800021C18001817047F8
:1028E0000021018041808180C180018141818181FD
:1028F00070470000002C01400034014000040040FB
:1029000000080040000C004021B1028842F00102A2
:10291000028004E002884FF6FE731A40028070477E
:1029200031B1B0F8442042F40042A0F8442005E060
:10293000B0F84420C2F30E02A0F8442070471AB148
:1029400083890B43838102E083898B4383817047B2
:102950008182704741EA0203A0F8483070471AB1FB
:1029600083890B43838102E083898B438381704792
:1029700001894FF6F8721140018170470A46002123
:1029800001894FF68F73194011430181704730B5AB
:1029900004460D4629462046FFF7F0FF208940F007
:1029A0000700208130BD2DE9F04104460D46164652
:1029B0001F46602D06D13B46012231462046FFF7D7
:1029C0005AFE05E03B46012231462046FFF79DFEB8
:1029D00029462046FFF7D2FF208940F007002081DA
:1029E000BDE8F08130B50C4600210189C9B24FF62F
:1029F000FF7505EA0325154325432943018130BDB1
:102A00002DE9F04105460E461746984600244346F8
:102A10003A4631462846FFF7E5FF2C894FF6F87015
:102A2000044044F007044FF68F70044044F07004F3
:102A30002C81BDE8F081F0B504460D4616461F46D0
:102A40003B46324629462046FFF7CCFF208940F41A
:102A500080402081F0BD0185828270470A460021B6
:102A600001884FF68F731940114301807047F0B50C
:102A70000C4615461E460021002200230189028BC8
:102A8000038C4FF6F877394021434FF6FC473A4024
:102A900040F201173A434FF6DD773B404FF6FF77A0
:102AA00007EA06172F433B43018102830384F0BDED
:102AB0000A460021018B4FF68F73194011430183A1
:102AC00070470A460021018B48F6FF7319404FF604
:102AD000FF7303EA02231943018370470A4600216A
:102AE000818B4FF68F7319401143818370470A46DB
:102AF0000021818B48F6FF7319404FF6FF7303EAFC
:102B0000022319438183704721B1028842F0800279
:102B1000028004E002884FF67F731A4002807047FB
:102B200021B1828842F00402828004E082884FF65C
:102B3000FB731A408280704721B1828842F00802FC
:102B4000828004E082884FF6F7731A4082807047D3
:102B500021B1828842F00102828004E082884FF62F
:102B6000FE731A40828070470A460021018B4FF69F
:102B7000F77319401143018370470A460021018B06
:102B80004FF2FF7319404FF6FF7303EA0223194314
:102B9000018370470A460021818B4FF6F773194075
:102BA0001143818370470A460021818B4FF2FF73E6
:102BB00019404FF6FF7303EA0223194381837047DC
:102BC0000A460021018B4FF6FB7319401143018324
:102BD00070470A460021018B4FF6FF3319404FF62C
:102BE000FF7303EA02231943018370470A46002159
:102BF000818B4FF6FB7319401143818370470A465E
:102C00000021818B4FF6FF3319404FF6FF7303EA23
:102C100002231943818370470A460021018B4FF636
:102C20007F7319401143018370470A460021018BCD
:102C3000C1F30E014FF6FF7303EA02231943018328
:102C400070470A460021818B4FF67F73194011436C
:102C5000818370470A460021818BC1F30E014FF634
:102C6000FF7303EA02231943818370470A46002158
:102C7000018C4FF6FD7319401143018470470A46D9
:102C80000021018C4FF6F7731940114301847047FE
:102C90000A460021018C4FF6DF7319404FF6FF738F
:102CA00003EA02131943018470470A460021018C8C
:102CB0004FF67F7319404FF6FF7303EA021319436F
:102CC000018470470A460021018C4FF6FF531940DA
:102CD0004FF6FF7303EA02231943018470470A4643
:102CE0000021018C4FF2FF7319404FF6FF7303EA86
:102CF00002231943018470470A460021018C4DF6D6
:102D0000FF7319404FF6FF7303EA0233194301843E
:102D1000704730B5002301248C40A3B2048C9C433F
:102D20000484048C02FA01F5ADB22C43048430BD56
:102D300030B5002304248C40A3B2048C9C4304844B
:102D4000048C02FA01F5ADB22C43048430BD70B599
:102D50000346002000241846183001258D40ACB2EF
:102D60001D8CA5431D8409B1082909D100EB610020
:102D7000056825F0700505600568154305600EE0DF
:102D80000D1FC5F34E052844056825F4E045056090
:102D900005684FF6FF7606EA02263543056070BDEA
:102DA00021B1028842F00202028004E002884FF65C
:102DB000FD731A400280704721B1028842F004027C
:102DC000028004E002884FF6FB731A4002807047CD
:102DD00021B1828842F08002828004E082884FF62E
:102DE0007F731A408280704702884FF6F7731A404B
:102DF000028002880A430280704782884FF68F73F0
:102E00001A40828082880A438280704702894FF686
:102E1000F8731A40028102890A43028170470289CD
:102E20004FF67F731A40028102890A43028170477C
:102E3000818470478185704781867047018770471C
:102E400081877047A0F84010704702884FF6FF4313
:102E50001A40028002880A43028070470146888E29
:102E600070470146088F70470146888F70470146BA
:102E7000B1F8400070470146888C70470146088DC4
:102E8000704702460020138A0B400BB1012000E07E
:102E900000207047CA430282704730B502460020C6
:102EA00000230024158A05EA0103958905EA010437
:102EB00013B10CB1012000E0002030BDCA430282F2
:102EC000704700007CB5002514E06946284601F0F3
:102ED00013FE064666B9F74850F8254044B1012C68
:102EE00006D0D4E9020100EB810060640198A0647F
:102EF000681CC5B23F2DE8D97CBD002400BF02E0AC
:102F0000282001F003FFEC4800780028F8D0EB48B7
:102F100000686421B0FBF1F0E849086008460068E9
:102F200028B90020E6490870FF2001F027FE00BF05
:102F300002F01CF80446E3480068E34908600020FA
:102F4000E0490860204602F015F8DF480068DB49D8
:102F50000968B0FBF1F0C0F16400D949087001F0D4
:102F6000B2FFFFF7AFFF142001F0D0FEE0E700B59D
:102F700087B0032000218022D44BCDE90132CDE976
:102F800003104FF6FE703E23D14A0090AFF2950039
:102F900001F0CBFB06AACFA13E2001F02FFD07B028
:102FA00000BD002400BF00BF01F0E0FF0446C5489B
:102FB0000068401CC3490860204601F0DBFF01F0B7
:102FC00081FFF1E700B587B0032000218022C54BC7
:102FD000CDE90132CDE903104FF6FF703F23C24A1D
:102FE0000090AFF2410001F0A0FB06AABFA13F2074
:102FF00001F004FD07B000BD04E0002200F8012B41
:103000004A1E91B20029F8D1704770B5C821BB485B
:10301000FFF7F2FF00230FE0581C85B203EB83009B
:10302000B64901EB800405EB850001EB800600202A
:1030300020706660581C83B2092BEDD303EB83002C
:10304000AE4901EB80040020207060600846AC4966
:10305000086070BD70B54FF47C71AA48FFF7CCFFD3
:103060004FF480719348FFF7C7FF002413E0601C02
:10307000C5B2C4EBC40000EB4000A24901EB8003E1
:10308000C5EBC50000EB400001EB80065E619EA031
:10309000D864601CC4B20B2CE9D3C4EBC40000EBB1
:1030A0004000984901EB80030020586196A0D86445
:1030B00000209649086093489549086070BD00213A
:1030C000944A1170002004E00021934A1154411CDD
:1030D000C8B20828F8D30021904A1170904A1170A4
:1030E000904A1160904A1160704700208F49086033
:1030F0008F4908708F4908708F4908708F49087090
:103100008F4908606F4908606F4908606B49086023
:1031100069490870704710B501F0D0FEFFF7E5FF70
:10312000FFF7CDFFFFF796FFFFF76FFF00F0EAFE16
:1031300001F0E1F9FFF746FFFFF719FF01F0BFFECD
:1031400010BD7E480078012808D179480078FF2812
:1031500004D277480078401C754908707047794957
:103160006C4A1278885C6C49095C764A515C01EBC8
:10317000C0016B4A1170704710B500246F48007889
:10318000012830D101F0F2FE04466948007820B1F0
:1031900067480078401E6649087065480078F8B9AD
:1031A00064480078E0B9FFF7DAFF42485C490978E3
:1031B00050F821005B490860594800785749097860
:1031C00088420DD057480068806B401C55490968FB
:1031D00088635B480068401C5949086001F0E5FEBF
:1031E000204601F0C7FE10BD10B5002453480078FA
:1031F000012811D101F0BAFE04464D48007840B9CB
:103200004C480078FF2804D24A480078401C4949BD
:103210000870204601F0AEFE10BD10B5002401F08C
:10322000A5FE044642480078F8B942480078E0B963
:10323000FFF795FF1F483A49097850F821003949AE
:103240000860374800783549097888420DD03548FC
:103250000068806B401C33490968886338480068FF
:10326000401C3749086001F099FE204601F082FEBB
:1032700010BD10B500243148007801286FD101F04D
:1032800075FE04462B48007880B12A480078401E1D
:10329000284908700846007848B92548007838B9A8
:1032A000204601F067FEFFF7B8FF58E054E04FE01A
:1032B0004AE00000A0110020480300204003002045
:1032C0003C0300205803002044030020A00D0020F0
:1032D0009C0F002075432F4F532D49492053746193
:1032E00074000000A00F00209C11002075432F4F98
:1032F000532D49492049646C65000000880C00206A
:1033000034030020A01200203F00000068030020CA
:10331000600300204D0300204E0300204B030020DB
:103320004C030020640300205C0300207403002091
:10333000490300204A0300205703002056030020C1
:10334000300300201E720000204601F013FE06E04C
:10335000204601F00FFE02E0204601F00BFE10BDFA
:1033600010B5EB48007890B9FFF7F9FEE94800780E
:10337000E9490870E948E749097850F82100E84927
:10338000086008460068E749086001F0F6FD10BDD6
:1033900010B50024022001F0B9FC01F0E7FD04465D
:1033A0000020E1490860204601F0E4FD142001F00E
:1033B000ADFC01F0DBFD0446DB480068DB4908603A
:1033C0000120DB490870204601F0D4FD10BD70B526
:1033D000002601F0C8FD01F0C9FD0646D548006889
:1033E000401CD4490860304601F0C4FDC84800784C
:1033F000012853D1D048007820B1012804D00228F8
:1034000009D103E001250BE0002509E00125012099
:10341000C949087004E001250020C749087000BFB1
:1034200000BF05B970BDC548046833E001F09EFDDA
:103430000646E06A50B3E06A401EE062E06A28BBDC
:1034400094F8300000F0370040B114F8300F00F06D
:10345000C800207001206070303C02E0002084F839
:10346000310094F8300000F0080078B93434A078C6
:10347000B34909780843B24908702078B149085C1B
:103480006178084314F83419AE4A505464693046E0
:1034900001F070FD94F832003F28C7D100BFC1E7AA
:1034A00040F223107047704710B590F8342001F1B6
:1034B0000B039B5C90F83540A34301F10B04A3542C
:1034C00023469B5C23B98B7A90F83640A3438B72DA
:1034D00010BD2DE9F04F05460F4690469946A87A53
:1034E00099490E5C05F10B00805D11F800B00BEB03
:1034F000C60000F0FF0A894850F82A400020203416
:10350000E0602760207C20EA0800207484F8119095
:10351000207C203C00F0080068B994F83600884907
:1035200009780843864908708648805D94F835100C
:1035300008438449885529462046FFF7B5FF504681
:10354000BDE8F08F10B5774A1268D061754A1268ED
:1035500092F8343000F10B02D25C724B1B6893F886
:1035600035301A436F4B1B6893F8344000F10B035E
:103570001A55827A6B4B1B6893F836301A43827265
:10358000684A126892F834106E4A525C654B1B68A8
:1035900093F835309A436B4B5A541A46525C42B9F1
:1035A000604A126892F83630654A12789A43644B42
:1035B0001A7010BD014600228A72002005E0002327
:1035C00001F10B021354421CD0B20828F7D3704704
:1035D00005E011F8013B00F8013B531E9AB2002AA6
:1035E000F7D170470146002002E0491C421CD0B2CE
:1035F0000A78002AF9D170472DE9F84F05460F46A1
:1036000090469946DDE90AAB0020009001F0AEFC3F
:1036100000904E480468002C75D0183454F8040CFF
:103620004A490860009801F0A5FC44F8187CA5768A
:10363000002020766076606144F814BC44F80CAC3D
:1036400044F8108C0C9824F8080C24F8069C0020F0
:10365000E077E810207705F00700E076217F012071
:103660008840A077E17E012088406077002060607C
:10367000E060A0602062A0626062E0622063AFF25E
:1036800078306063183C002606E0002104F1500009
:1036900040F82610701CC6B2002EF6D0204601F06D
:1036A00061FC204601F00CFC01F060FC00901B481E
:1036B00040F825402148006860610020A0611F4853
:1036C000006810B11D48006884611C4804603434EF
:1036D000A0781B49097808431949087020781949CE
:1036E000085C6178084314F83419164A5054184895
:1036F0000078401C16490870009801F03BFC00203F
:10370000BDE8F88FFFE7009801F034FC4220F7E7AE
:10371000560300204C0300204B030020A011002082
:10372000640300205C0300205803002040030020B5
:1037300048030020740300206C030020680300206D
:103740004D0300204E0300201E7200006003002085
:10375000570300202DE9F05F04460F4691461E46B0
:103760004FF0000B2078052804D001203070002095
:10377000BDE8F09F09F0800ABAF1000F04D029F0EB
:1037800080094FF0010801E04FF000080020307080
:1037900001F0ECFB8346B9F1000F2CD0B9F1010F19
:1037A0003BD0B9F1020F03D0B9F1030F46D111E0BC
:1037B000208900EA0705BD4206D1B8F1010F05D105
:1037C0002089A843208101E070203070584601F024
:1037D000D1FB3AE0208900EA070535B1B8F1010FC5
:1037E00005D12089A843208101E07020307058461F
:1037F00001F0C0FB29E0208927EA0005BD4206D17F
:10380000B8F1010F05D120892843208101E0702003
:103810003070584601F0AEFB17E0208927EA00051A
:1038200035B1B8F1010F05D120892843208101E08D
:1038300070203070584601F09DFB06E0584601F0BC
:1038400099FB00256F20307000BF00BF28468FE72E
:103850002DE9F04106460D460027FA48007820B1D0
:10386000102028700020BDE8F08101F07FFB0746A2
:10387000F548046884B100684068F3490860052091
:103880002070268100206060F0A0E060384601F0E2
:1038900071FB0020287004E0384601F06BFB7220B9
:1038A00028702046DFE730B501464A6808682AB923
:1038B000CC68606028B10025456002E0106000B16E
:1038C00042608B6800255D6230BDF0B506460F464C
:1038D000B4680020283460602780207A00F0DF0080
:1038E000207200206072207A283C88B93434A07895
:1038F000D74909780843D64908702078D549085C2B
:103900006178084314F83419D24A5054012500E074
:1039100000253046FFF7C7FF2846F0BD2DE9F047E8
:103920000446894615464FF0000AC648007820B183
:103930000F2028702046BDE8F0872078052803D0A6
:10394000012028702046F6E701F010FB82466068EF
:1039500008B1012700E00027B9F1000F03D0B9F149
:10396000010F3CD119E08FB9B8A0E06000202070B1
:10397000B5480068606000202081B348046050466C
:1039800001F0F8FA00202870002605E0504601F00A
:10399000F1FA49202870264628E0D4F8048005E092
:1039A00000214046FFF791FFD8F80080B8F1000FE2
:1039B000F6D1A6A0E06000202070A34800686060F7
:1039C00000202081A0480460504601F0D3FA012F66
:1039D00001D1FFF722FC00202870002606E05046A7
:1039E00001F0C8FA07202870264600BF00BF304605
:1039F000A1E72DE9F04105460E46144600279148FF
:103A0000007820B1112020700020BDE8F08101F085
:103A1000ADFA07462878052806D0384601F0AAFAFC
:103A2000012020700020F0E7E86830603068FFF780
:103A3000D9FD8046384601F09DFA002020704046AE
:103A4000E3E72DE9F04105460E46144600277D4880
:103A5000007818B112202070BDE8F08101F086FADC
:103A600007462878052805D0384601F083FA01205A
:103A70002070F1E7EE60384601F07CFA00202070FB
:103A800000BFE9E7F0B51446059E734F3F6897F80D
:103A9000307047F02007DFF8C0C1DCF800C08CF8B8
:103AA00030700027DFF8B0C1DCF800C08CF831704E
:103AB000694F3F68FE62684F3F6879620C828B7481
:103AC000654F3F688F6047680F6000274F60C86090
:103AD000456805B1696041605F4F3F6897F83420E1
:103AE0005C4FBF5CDFF870C1DCF800C09CF835C0EB
:103AF00027EA0C07DFF85CC10CF802706746BF5C70
:103B00005FB9554F3F6897F836C0514F3F7827EA65
:103B10000C07DFF83CC18CF80070F0BD2DE9F04FC8
:103B200089B005460F4691469A46129E00200290A3
:103B30004448007828B102203070002009B0BDE868
:103B4000F08F4648007818B10D2030700020F5E75E
:103B50002878052803D0012030700020EEE709F016
:103B6000800BBBF1000F04D009F07F094FF0010872
:103B700001E04FF0000801F0F9F90290B9F1000FEF
:103B80004AD0B9F1010F78D0B9F1020F03D0B9F1E1
:103B9000030F71D120E0288900EA0704BC420FD14D
:103BA000B8F1010F02D12889A04328812A48006872
:103BB0000485029801F0DEF9002030702046BDE750
:103BC0004B463A4604A92846CDF800A0FFF75AFF15
:103BD000029801F0CFF978E0288900EA07047CB167
:103BE000B8F1010F02D12889A04328811A48006842
:103BF0000485029801F0BEF90020307020469DE750
:103C00004B463A4604A92846CDF800A0FFF73AFFF4
:103C1000029801F0AFF958E0288927EA0004BC4275
:103C20001ED1B8F1010F02D12889204328810A480A
:103C300000680485029801F09DF90020307020464C
:103C40007CE71AE049030020380300203F00000011
:103C50004D0300204E0300205C0300204A03002097
:103C60004B463A4604A92846CDF800A0FFF70AFFC4
:103C7000029801F07FF928E01FE0288927EA000474
:103C80007CB1B8F1010F02D1288920432881B148C5
:103C900000680485029801F06DF90020307020461C
:103CA0004CE74B463A4604A92846CDF800A0FFF75A
:103CB000E9FE029801F05EF907E0029801F05AF976
:103CC00000246F203070204638E700BFFFF7A5FAC8
:103CD00001F04CF902909F48006890F8310020B341
:103CE0009C48006890F831000390002099490968C9
:103CF00081F8310004A8FFF7D6FD00209549096836
:103D000081F83000029801F035F900240398012869
:103D100005D0022802D10E20307003E000BF0A2037
:103D2000307000BF00BF204608E78A480068048D55
:103D3000B8F1010F1ED1B9F1000F0ED0B9F1010F8A
:103D40000CD0B9F1020F03D0B9F1030F0AD100E092
:103D500000BF2889A04328810BE000BF28892043A9
:103D6000288106E0029801F005F96F2030700020EC
:103D7000E4E600BF029801F0FDF800203070204614
:103D8000DCE670B5002501F0F1F8054671480068E1
:103D9000048D284601F0EEF8204670BD2DE9FC5F49
:103DA0000446894692461E46002000902078052849
:103DB00004D0012030700020BDE8FC9F01F0D6F84F
:103DC0000090BAF1000F03D0BAF1010F0AD104E05C
:103DD000208920EA090020810BE0208940EA0900BF
:103DE000208106E0009801F0C5F8712030700020B5
:103DF000E2E700BF4FF0000B656855E0A87C40B3D8
:103E0000012838D0022802D0032844D111E02089AB
:103E1000298A00EA0107288AB84209D1394628468A
:103E2000FFF753FD8046B8F1010F01D14FF0010BB0
:103E300038E02089298A00EA01074FB1394628462F
:103E4000FFF743FD8046B8F1010F01D14FF0010BA0
:103E500028E0288A218920EA0107288AB84209D166
:103E600039462846FFF731FD8046B8F1010F01D1F0
:103E70004FF0010B16E0288A218920EA01074FB193
:103E800039462846FFF721FD8046B8F1010F01D1E0
:103E90004FF0010B06E0009801F06CF86F203070D5
:103EA000002089E700BF2D68002DA7D1009801F000
:103EB00061F8BBF1010F01D1FFF7AFF901F056F83E
:103EC000009020890190009801F054F80020307093
:103ED000019871E72DE9F04104460D46002720784E
:103EE000052804D0012028700020BDE8F08101F0F1
:103EF0003DF807462689384601F03CF80020287036
:103F00003046F2E72DE9F04150211348FFF774F8ED
:103F100000250EE0681C86B20F4800EB051400EB8C
:103F20000617002020706760AFF2E020E060681C98
:103F300085B2042DEED3084800EB05140020207054
:103F40006060AFF2F820E060034804490860BDE813
:103F5000F08100005C030020500D00203803002099
:103F60002DE9F04106460D464FF000083078022852
:103F700004D0012028700020BDE8F08100F0F6FF99
:103F800080467468E08A78B12169081D20610F6855
:103F9000E08A401EE082A1682069884201D1606801
:103FA00020610020287002E01F2028700027404672
:103FB00000F0E0FF3846DFE72DE9F04106460F4606
:103FC0004FF00008F748007810B10020BDE8F081FC
:103FD00000F0CCFF8046F4480568006820B1F24844
:103FE00000684068F0490860404600F0C3FF3DB3F8
:103FF00000F0BCFF8046ED480468C4B1006800686A
:10400000EA490860404600F0B5FF666006EB8700AD
:10401000A060E6602661A7820020E082022028706E
:10402000002028816C602846FFF7C4FA08E0DE48CB
:1040300000686860DC480560404600F09BFF002592
:104040002846C3E72DE9F0470446894615464FF058
:10405000000A2078022804D0012028702046BDE8FC
:10406000F087D048007818B10F2028702046F6E776
:1040700000F07CFF8246A07A10B14FF0010801E009
:104080004FF00008B9F1000F03D0B9F1010F45D18D
:104090001FE0B8F1000F15D16668C44800683060B1
:1040A000C248066000202070BF48006860600020A1
:1040B0002081BD480460504600F05CFF002028705D
:1040C000002705E0504600F055FF4920287027469C
:1040D0002BE005E00023042219462046FFF7F9F9FA
:1040E000A07A0028F6D16668B04800683060AF4812
:1040F000066000202070AC480068606000202081CD
:10410000A9480460504600F035FFB8F1010F01D115
:10411000FFF783F800202870002706E0504600F0E3
:1041200029FF07202870274600BF00BF384696E7C2
:1041300070B50546002600F019FF06466C686068F9
:10414000E060606820610020E082304600F012FFED
:10415000002070BD2DE9F0470746884615464FF010
:1041600000093878022804D0012028700020BDE81A
:10417000F0878C48007818B1022028700020F6E7FC
:104180008B48007818B10D2028700020EFE700F070
:10419000EDFE81467C68E08A98B12169081D2061A6
:1041A0000E68E08A401EE082A1682069884201D141
:1041B00060682061484600F0DDFE0020287030462F
:1041C000D5E77C48006890F8300040F00400794959
:1041D000096881F8300000207649096881F83100CB
:1041E00074480068C0F82C803846FFF7ABF94846A1
:1041F00000F0C0FEFFF711F800F0B8FE81466D48F0
:10420000006890F8310020B101280DD002280AD1B1
:1042100005E068480068066A002028700DE0002666
:104220000E20287009E000BF394662480068FFF799
:104230003BF900260A20287000BF00BF00205D491E
:10424000096881F830005B49096881F831005949F3
:104250000968C861574909680862484600F08AFE43
:10426000304684E72DE9F04104460F4615464FF0ED
:1042700000082078022804D0012028700020BDE822
:10428000F08100F073FE8046A07A20B300267FB153
:10429000012F0CD107E00223042200212046FFF762
:1042A00018F9701CC6B2A07A0028F4D109E000BF4A
:1042B0000223042200212046FFF70BF9701CC6B22E
:1042C00000BF00BF404600F055FEFEF7A6FF0E20DF
:1042D00028703046D3E7404600F04CFE002028709E
:1042E00000BFCCE72DE9F04105460E4600272878AF
:1042F000022802D00120BDE8F08100F037FE074619
:10430000A87A60B10023042231462846FFF7E1F87D
:10431000384600F02FFEFEF780FF0020EBE76C68C8
:10432000E08AA18A884204DB384600F023FE1E2082
:10433000E1E7E168081DE0600E60E08A401CE08271
:10434000D4E90210884201D16068E060384600F08C
:1043500011FE0020CFE72DE9F04105460E4600276B
:104360002878022802D00120BDE8F08100F0FEFD8F
:104370000746A87A60B10023042231462846FFF799
:10438000A8F8384600F0F6FDFEF747FF0020EBE7FF
:104390006C68E08AA18A88420EDB384600F0EAFDAC
:1043A0001E20E1E7490300203403002070030020B1
:1043B0004A0300205C03002061682069884201D123
:1043C000A06820612069001F206120690660E08AE2
:1043D000401CE082384600F0CDFD0020C4E72DE906
:1043E000F04105460F4616464FF00008287802288F
:1043F00002D00120BDE8F08100F0B8FD8046A87A27
:10440000E8B106F0010050B105E00023042239466E
:104410002846FFF75EF8A87A0028F6D105E00023C9
:10442000042239462846FFF754F8404600F0A2FD22
:1044300006F0040008B9FEF7F0FE0020DAE76C6829
:10444000E08AA18A884204DB404600F093FD1E20EA
:10445000D0E706F0020058B161682069884201D1B6
:10446000A06820612069001F20612069076009E0C1
:10447000E168081DE0600F60D4E90210884201D1B4
:104480006068E060E08A401CE082404600F072FD17
:104490000020AFE72DE9F04705460C464FF0000A33
:1044A0002878022802D00120BDE8F08700F05EFDE8
:1044B0008246A87A207405F10B0804F10809002748
:1044C00005E018F8010B09F8010B781CC7B2082F9A
:1044D000F7D36E68F08A18B130690068206001E097
:1044E00000202060F08AA080B08AE080504600F072
:1044F00041FD0020D8E72DE9F04178211048FEF772
:104500007BFD00240DE0601C86B204EB44000C49E6
:1045100001EBC00506EB460001EBC0072F60601CF5
:1045200084B2042CEFD304EB4400054901EBC00531
:1045300000202860084603490860BDE8F0810000BB
:1045400090160020700300202DE9FF5F8146884609
:104550000020009000F00AFD0090F94850F8280073
:1045600030B1009800F006FD282004B0BDE8F09FAF
:10457000B9F1FF0F03D1F348006890F83290F0488A
:1045800050F8294024B9009800F0F4FC2920ECE709
:10459000012C04D1009800F0EDFC4320E5E74FEA40
:1045A000E80708F0070003900120B84000F0FF0A78
:1045B00001210398814001F0FF0B0020E04941F800
:1045C0002900084640F8284014F8346FA07802907B
:1045D0006078343C0190DC48815D01980140D1B1A4
:1045E000D948805D01998843D74988550846805D40
:1045F00028B9D648007802998843D4490870D3482E
:10460000007840EA0A00D1490870CF48C05D40EA0E
:104610000B00CD49C855E569D5B105F10B00805DAA
:104620000199884305F10B0188550846805D18B94A
:10463000A87A02998843A872A87A40EA0A00A87268
:1046400005F10B00C05D40EA0B0005F10B01C855F8
:1046500084F8328084F83470039884F8330084F846
:1046600036A084F835B0009800F084FCB848007893
:10467000012801D1FEF7D1FD002076E72DE9FE4F9C
:1046800006460F4690461C464FF0000900F06EFCAF
:104690008146B048007828B1484600F06BFC3C20C9
:1046A000BDE8FE8FA64850F8240060BB0120A44955
:1046B00041F82400484600F05DFC0023424639469C
:1046C000304600F001FC8246002000900190034635
:1046D0000246514602902046FEF78EFF054635B948
:1046E0009B48007801280CD1FEF797FD09E000F007
:1046F0003DFC81460020924941F82400484600F0E4
:1047000039FC2846CCE7484600F034FC2820C7E7AF
:1047100002F0010343B102F002032BB102E0491E93
:10472000002308C00029FAD170472DE9F04F85B069
:1047300081468A4693461C46DDE90F78129D00208B
:10474000039000F013FC03908248007830B1039886
:1047500000F010FC3C2005B0BDE8F08F784850F820
:10476000240088BB0120764941F82400039800F01A
:1047700001FC2A4641463846FFF7CAFF2B465A46F7
:104780005146484600F0A0FB04901198CDE9008006
:1047900002953A4620460E9B0499FEF72DFF0646E9
:1047A00036B96B48007801280CD1FEF736FD09E0D8
:1047B00000F0DCFB03900020614941F824000398DD
:1047C00000F0D8FB3046C6E7FFE7039800F0D2FBC5
:1047D0002820C0E72DE9F041054600275D48007814
:1047E00010B14020BDE8F0813F2D01D13E20F9E716
:1047F00000F0BCFB0746FF2D03D15248006890F83B
:1048000032504F4850F8254024B9384600F0B2FBEA
:104810004320E7E7012C04D1384600F0ABFB3D20F4
:10482000E0E714F8340F4849085C61788843217840
:10483000454A505414F834091146085C30B994F8CC
:10484000361042480078884340490870E06918B142
:104850002046E169FEF728FE666A16B13046FFF78A
:1048600022F80020E06284F8300084F831003A48F1
:104870000078FF2804D238480078401C3649087078
:10488000384600F077FBFEF70EFE00F06FFB0746A0
:104890003148007820B130480078401E2E49087019
:1048A000204600F00EFB2D480078401E2B49087072
:1048B0000020234941F82500A06930B90020616932
:1048C000886127496069086005E0D4E9050148610D
:1048D000D4E90510886123480068606121480460BC
:1048E00021A0E064384600F045FB19480078012813
:1048F00001D1FEF792FC002074E72DE9F041044657
:1049000000273F2C02D13E20BDE8F081FF2C0BD1C7
:1049100000F02CFB07460B48006890F837603846DB
:1049200000F028FB3046EFE700F020FB0746044884
:1049300050F82450D5B9384600F01CFB4320E3E77B
:10494000A01100205C0300204E0300204D03002036
:1049500056030020490300204A030020570300208B
:1049600068030020600300203F000000012D04D1F7
:10497000384600F0FFFA3D20C6E73F2085F83700B3
:10498000384600F0F7FA0020BEE72DE9F04706466A
:104990000F4614464FF00008D648007820B1112089
:1049A00020700020BDE8F08700F0E0FA8046FF2E7E
:1049B00003D1D148006890F83260D04850F82650B2
:1049C00035B9404600F0D6FA432020700020E9E7D0
:1049D000012D06D1404600F0CDFA43202070002082
:1049E000E0E7E86C38603868FEF7FCFD8146404639
:1049F00000F0C0FA002020704846D3E72DE9F041CE
:104A000006460F4614464FF00008BA48007818B121
:104A100012202070BDE8F08100F0A8FA8046FF2E39
:104A200003D1B548006890F83260B44850F8265079
:104A30002DB9404600F09EFA43202070EAE7012D90
:104A400005D1404600F096FA43202070E2E7EF647B
:104A5000404600F08FFA0020207000BFDAE770B502
:104A60000546002600F082FA0646A44850F8254084
:104A700024B9304600F07EFA462070BD012C04D1E6
:104A8000304600F077FA4320F7E794F8300000F062
:104A9000080060B314F8300F00F0F700207014F82D
:104AA0003009F8B9E06AC8B93434A0789449097873
:104AB00008439349087020789249085C617808435C
:104AC00014F834198F4A5054304600F053FA8E4887
:104AD0000078012809D1FEF7A0FB06E0304600F07F
:104AE00049FA02E0304600F045FA0020C5E73046BA
:104AF00000F040FA4420C0E72DE9F04707460D4694
:104B00004FF0000A00202860686000F02FFA82460B
:104B1000FF2F03D17848006890F83270774850F83A
:104B200027402CB9504600F025FA4320BDE8F08715
:104B3000012C04D1504600F01DFA4320F6E7207CFA
:104B400000F0010020B9504600F014FA4520EDE7CE
:104B50000026D4F80C90D4F80880504600F00AFAE9
:104B600000E0761C58F8041B0029FAD0B000286039
:104B7000A9EB0600800068600020D7E72DE9F0412E
:104B800005464FF0000800F0F1F98046FF2D05D1F1
:104B90005948006890F83250012608E056480068ED
:104BA00090F83200A84201D1012600E000265348C7
:104BB00050F825402CB9404600F0DCF94820BDE80B
:104BC000F081012C04D1404600F0D4F94320F6E7EF
:104BD00094F834704B48C05D94F8351088434949C7
:104BE000C8550846C05D30B994F83610444800787E
:104BF00088434349087094F8300040F0080084F876
:104C00003000404600F0B6F9012E01D1FEF705FB59
:104C10000020D4E72DE9F04105460E46002700F0BC
:104C2000A5F90746FF2D03D13348006890F83250AC
:104C3000324850F825402CB9384600F09BF929201D
:104C4000BDE8F081012C04D1384600F093F94320EF
:104C5000F6E7542221463046FEF7BAFC384600F00B
:104C600089F90020ECE72DE9F04704460E46174687
:104C70004FF0000900F07AF98146FF2C02D11E485E
:104C8000056802E01D4850F8245005F1500050F826
:104C90002680484600F06EF9002038704046BDE896
:104CA000F0872DE9F04704460E46174698464FF028
:104CB000000900F05BF98146FF2C02D10E4805681F
:104CC00002E00E4850F8245005F1500040F82670DC
:104CD000484600F04FF9002088F80000BDE8F08752
:104CE00010B50548006800F03FF9FF20FFF772FD9E
:104CF00010BD0000490300205C030020A01100202B
:104D00004D0300204E0300205603002070B50546D9
:104D100000266348007800B170BD6248007800B199
:104D2000FAE71DB300F022F906465F48006890F8E4
:104D300034405E48005D5C49096891F8351088434D
:104D40005A4908550846005D40B95748006890F830
:104D50003610574800788843554908705248006813
:104D6000C562304600F006F9FEF757FA00BFD3E7F8
:104D70002DE9F04104460D4616461F464848007886
:104D800010B15520BDE8F0814648007808B13220C6
:104D9000F8E7B81CC82148434FF47A71B0FBF1F131
:104DA0004FF461606043C5EB051200EB82003044B4
:104DB00000EBC00202EB001001EBC0084046FFF719
:104DC000A5FF0020DEE770B5054600263F2D01D384
:104DD0002A2070BD00F0CAF80646364850F8254033
:104DE00024B9304600F0C6F84320F2E7012C04D184
:104DF000304600F0BFF84320EBE7E06A20B93046C8
:104E000000F0B8F85020E4E70020E06294F83000A9
:104E100000F0370040B114F8300F20F03700207058
:104E200001206070303C02E0002084F8310094F8EA
:104E3000300000F00800A8B93434A0781C49097883
:104E400008431B49087020781849085C61780843BA
:104E500014F83419154A5054304600F08BF8FEF718
:104E6000DCF902E0304600F085F80020B1E770B5CB
:104E7000002500F07BF805460F480468284600F03E
:104E800079F8204670BD70B50446002500F06EF834
:104E9000054609480460284600F06CF870BD000023
:104EA000490300204A0300205C0300204E03002039
:104EB0004D030020A01100207403002070477047AC
:104EC000704770477047704770B5044610464FF002
:104ED00080750560051F28462C606FF00106051FD0
:104EE00028462E604FF01236051F28462E604FF0E0
:104EF0000336051F28462E604FF00236051F284650
:104F00002E607610051F28462E60051F2846296052
:104F10004FF01136051F28462E604FF01036051F42
:104F200028462E604FF00936051F28462E604FF0A8
:104F30000836051F28462E604FF00736051F284605
:104F40002E604FF00636051F28462E604FF00536BE
:104F5000051F28462E604FF00436051F28462E6098
:104F600070BD70477047704770470000EFF31080C6
:104F700072B6704780F310887047204C204D256032
:104F80004FF0000484F309881E4C4FF00105257092
:104F90001D4C4FF08055256062B6FEE730B41A4CC8
:104FA0004FF08055256030BC704730B4164C4FF040
:104FB0008055256030BC704700BF72B6EFF30980A2
:104FC00028B1203880E8F00F10490968086000B562
:104FD0000F4880475DF804EB0E480F490A780270CD
:104FE0000A480E490A680260106890E8F00F203005
:104FF00080F309884EF0040E62B6704720ED00E0A1
:105000000000FFFF5603002004ED00E05C030020D9
:10501000634F00004B0300204C030020640300207A
:10502000704700001CB50C46064B7B446946009057
:10503000204600F0E4F804460020694600F0F2F84B
:1050400020461CBDF701000010B5431C02E010F81B
:10505000011B71B18107FAD14FF0013202C88C1ADD
:105060008C4314EAC211F9D0C01A0A0603D0C01E3C
:1050700010BDC01A10BD0A0401D0801E10BD090267
:10508000FCD0401E10BD704770477047704770B528
:10509000044685690068C10601D5302600E0202657
:1050A000C00707D070BDD4E9012130469047206A7F
:1050B000401C20626D1EF6D570BD70B50446856932
:1050C0000078C00707D170BDD4E9012120209047A6
:1050D000206A401C20626D1EF6D570BD09684A0525
:1050E00001D540B27047C905FCD500B270470968C8
:1050F0004A0501D5C0B27047C905FCD580B27047DA
:1051000070B50C460546012A05D02878800600D5E2
:10511000EA69002302E0012305E05B1C934202D20E
:10512000E05C0028F9D1A869E618C01AA861286ACD
:10513000184428622846FFF7AAFF04E0D5E90121B8
:1051400014F8010B9047B442F8D32846FFF7B5FF97
:1051500070BD00002DE9F041064600241068752955
:10516000314616A510D0FFF7B9FF002802DA4042F9
:1051700013A507E031688A0701D512A502E04907A7
:1051800004D511A5012401E0FFF7B1FF00210A2297
:1051900006F1240709E0B0FBF2FCB0FBF2F302FBDE
:1051A0001C00303078541846491C0028F3D123469F
:1051B0002A463046BDE8F04100F061BA0000000028
:1051C0002D0000002B000000200000001168026884
:1051D000006A530501D508700AE0D30501D508809F
:1051E00006E0130603D5C217C1E9000200E008601B
:1051F0000120704701694A1C02610878704700B5B8
:105200008FB0CDE901310021059105497944CDE9FF
:1052100003101146684600F029F90FB000BD0000E8
:10522000E5FFFFFF0A6802F8010B0A607047000003
:105230002DE9FF5F15468A460446DFF8AC80F84446
:105240000027D8E900103E46CDE9001010E03AF8FA
:1052500016106A4602A800F0A4FC411C07D0217871
:10526000890603D5E269391891420DD80744761CA6
:105270002078800602D5E069B84205DDAE42E6DB63
:105280003AF816000028E2D1A069C01BA0612046B0
:10529000FFF7FDFED8E90010CDE90010002017E06F
:1052A0003AF818106A4602A800F07BFCB0F1FF3F04
:1052B00081460BD000250DF1080B05E0D4E9012152
:1052C0001BF8050090476D1C4D45F7D308F1010010
:1052D000B0428046E4DB206A384420622046FFF773
:1052E000ECFEBDE8FF9F0000DE2000002DE9F0414C
:1052F0008046D21D22F007020025D2E90002F529DE
:1053000015A614D0011E72F1000106DA0023D0EBBD
:10531000030063EB020211A608E0D8F800108B0727
:1053200001D50FA602E0490701D50EA601251146B9
:10533000002408F1240704E000F05CF930323A550B
:10534000641C50EA0102F7D12B4632462146404602
:10535000BDE8F04100F093B9000000002D0000000E
:105360002B0000002000000030B4002100F12404D4
:1053700008E002F00705D208303542EA4372DB0844
:105380006554491C52EA0305F3D10468002310A2B6
:10539000250708D504F020040C4304D0C469012378
:1053A0000CA2641EC46130BC00F069B910B504469B
:1053B00021461068FFF79BFE02462046BDE81040DC
:1053C0000023D1E7D21D22F00701D1E90023CBE76A
:1053D0000000000030000000F0B40D46018809050F
:1053E00002D5214C7C4402E01F4C7C440E34002149
:1053F00000F1240608E002F00F071209E75D42EA17
:1054000003721B097754491C52EA0307F3D102784F
:105410000023120704D5702D06D009B102231134E0
:105420002246F0BC00F02BB901231034F8E770B528
:1054300004460D4621461068FFF759FE02462946EC
:105440002046BDE870400023C6E7D21D22F00703C6
:10545000D3E90023C0E70368126843F02003036028
:105460000823C3610023B7E7401F00002DE9F05F68
:10547000894604464FF0000ADFF874B1FB44C0F8D7
:1054800020A02046E1688847002874D0252806D04F
:10549000D4E901219047206A401C2062F1E70026F0
:1054A0005F462046E16888472028054607DB312D06
:1054B00005D2781910F8200C08B10643F1E7B007BF
:1054C00001D526F00406C4F81CA00027C4F818A0D3
:1054D0002A2D09D0284601F080F838B304EB87085C
:1054E000303DC8F8185019E059F8041B204604EB69
:1054F00087029161E1688847012F054618D1E0696C
:10550000002820DA26F020061DE0D8F8180000EB6D
:10551000800005EB40003038C8F818002046E168EC
:105520008847054601F059F80028EED1012F0AD02E
:105530002E2D08D12046E16888477F1C0546022FA2
:1055400046F02006C4DBA069002803DA404246F09A
:105550000106A061F00701D026F010066C2D0BD0DB
:10556000682D09D04C2D39D06A2D35D0742D35D009
:105570007A2D33D016E038E0E1682F462046884780
:10558000B842054609D16C2F26D04FF48060E168FF
:10559000064320468847054604E06C2F1AD04FF496
:1055A000807006430DB3A5F14100192802D82035BB
:1055B00046F400664A462946204626604E46FAF7DB
:1055C00011FE80B101280BD0F61D26F0070000F176
:1055D000080956E74020E4E78020D8E70020D6E716
:1055E00006F104094DE7284652E7206ABDE8F09F1E
:1055F000D01E000030B5B0F10A024FEA900E71F1F2
:1056000000034EEA817EB0EB0E0061EB91014FEAA0
:10561000101E4EEA017E10EB0E0041EB11114FEA15
:10562000102E4EEA016E10EB0E0041EB11214FEAF5
:10563000104E4EEA014E10EB0E0041EB11414018A6
:1056400041F100014FEAD00040EA41704FEAD10138
:1056500010EB80054FEA810444EA907444EB0104A6
:105660006D1944EB0404521BA3414FF0000348BFE3
:105670000A3200D530BD401C41F1000130BD2DE99A
:10568000F0470D4699469246044600F12408016809
:10569000880604D5E06921F01001216000E00120B6
:1056A000A84201DD471B00E00027A1697A1902EB3F
:1056B0000900081AA0612078C00602D42046FFF72E
:1056C000E6FC002608E0D4E901211AF8060090471C
:1056D000206A401C761C20624E45F4DB2078C00610
:1056E0000AD52046FFF7D3FC06E0D4E9012130209B
:1056F0009047206A401C2062381EA7F10107F4DCA5
:1057000007E0D4E9012118F805009047206A401C01
:105710002062281EA5F10105F3DC2046FFF7CDFC31
:105720002078000602D50220BDE8F0870120FBE7C3
:1057300070472DE9FF4F0C461E464FF0FF378BB0E8
:10574000D2E90001DDF860800A908A46C1F30A556B
:1057500005B93D46002108464FF00000BAF1000FA0
:1057600000F4400005DA00EB80004FF4400101EA4C
:1057700050004FEA9059B9F1010F00DDB9460A987F
:1057800050EA4A000ED044F61050A5F2FF354543CA
:105790002F14B8F1000F1ED07542291E1EDDC9F16D
:1057A00000021CE0B8F1010F4FF0000001D03021E1
:1057B00003E0F24305E02154401CB042FBDB3046DD
:1057C0000022002121540B99C1F80880C1E9002072
:1057D0000FB0BDE8F08FBD1B6D1CDEE74A4600DA56
:1057E000694206A800F06EFA06AB93E8070003AB27
:1057F00083E8070050460A9900F020FB8DE8070077
:10580000A0F500501F3800900398002D09DD42F2EA
:105810001F014A46084403A90390684600F07FFD33
:1058200008E0A0F500504A461F3803A903906846D7
:1058300000F089FD8DE807000004000C03D04FF054
:10584000FF30410800E01046B8F1000F03D00022FD
:10585000009215461EE0751E05D4FFF7CBFE3032D0
:1058600062556D1EF9D5B3460122084302D00022CD
:105870007F1C04E02078302801D100227F1E002AFE
:10588000099786D01DE0112D07DAFFF7B3FE3032FD
:1058900062556D1C50EA0102F5D1084302D0009810
:1058A000C8B10EE00021681E05E0235C625C635411
:1058B0002254401E491C8142F7DBAB46A81B401E08
:1058C0000990002004F80B000B98099AC0F8088092
:1058D000C0E9002B7CE711264FF0000859E72DE9BD
:1058E000F04F88460446D21D22F0070191B0D1E95D
:1058F0000001CDE90A0100F05CFE02460B98C00FE2
:1059000001D02D2007E02068810701D52B2002E07F
:10591000202101EAC000032A099001D0072A05DBF3
:1059200003464146204600F08DF90BE120788006C1
:1059300001D5E06900E00620B8F1650F814606D088
:10594000B8F1660F18D0B8F1670F70D131E00020C0
:10595000B9F1110F009001DB112301E009F10103FE
:105960000AAA01A90CA8FFF7E4FEDDE90C700026E5
:1059700009F10105834647E001204B4600904FF0B6
:1059800000470AAA01A90CA8FFF7D3FEDDE90DB074
:105990000C995D46002610B909F101000D18B9EB0C
:1059A000050003D4C0F1FF3609F10105A5EB09009C
:1059B0002BE0B9F1010F01DA4FF001090020B9F134
:1059C000110F0090484601DD112300E003460AAAAA
:1059D00001A90CA8FFF7ADFEDDE90C704D460026CD
:1059E0008346207800070AD4AB4500DA5D4601A85B
:1059F000012D04DD411911F8011C302907D04F4554
:105A000002DA17F1040F04DA012082460FE06D1E5E
:105A1000EEE7002F02DCED1B3E4403E0781CA842B9
:105A200000DD7D1CB81B00F1010A4FF00047207813
:105A3000000703D4AA4501DB4FF0FF3A0021B7F17C
:105A4000004F0DF143088DF8431024D002202B2382
:105A5000002F01DA7F422D230A21021EA0F101004E
:105A600000DC5FB197FBF1FC97FBF1F201FB1C7CC2
:105A700017460CF1300C08F801CDEEE7A8F1010053
:105A800003702188090501D5452100E06521A0F1B9
:105A9000010800F8011C09980FA9A1EB0807FF1DD8
:105AA00000B10120411901EBEA70A1693844081ADC
:105AB000401EA0612078C00602D42046FFF7E7FA16
:105AC000099828B1D4E901219047206A401C20623E
:105AD0002078C00622D52046FFF7D9FA1EE0002E16
